000000HE20220514072600
000001DA0005142205832205836393470000988037    000000005000000000100051303573188824611112222        03204118373                 03204118373                 999925000051
000002DA00051455904955904903114585718         000001000000000000100051305473616073701070000        03114585718                 03114585718                 999925000052
000003DA00051455904955904903114585718         000000002000000000100051305482316076301070000        03114585718                 03114585718                 999925000052
000004DA0005146278736278732345670831003857    0000000010000000001000513105502718525rand            08310106449273              03350516640                 999925000052
000005DA0005146278736278735160620306005042    0000003482000000001000513131111970177rand            03060104164176              03018191111                 999925000052
000006DA0005146278736278734649510831007007    0000001250000000001000513154842334538rand            08310106313672              03444447437                 999925000052
000007DA000514639390639390923104738770        000000040000000000100051318461665403592310473        923104738770                03104738770                 999925000000
000008DA0005146014929586006014920001000013    000000091800000000100051321224374707700000133        01031745574177561354        03047047047                 999925000000
000009DA0005142205832205836393470000372711    000000029500000000100051321410475790711112222        03082893132                 03082893132                 999925000000
000010FO20220514072600
