000000HE20220515072315
000001DA0005152205832205836393470000372711    000000005000000000100051400062584090911112222        03082893132                 03082893132                 999925000051
000002DA0005156274086274086023720614714115143 000015000000000003000051400371106934300000HMB        6023720614714115143         03218141444                 999925000051
000003DA00051562727162727118729252701         0000006508000000001000514022524442829ONLINE          18729252701                 03225114400                 999925000051
000004DA0005152205832205836393470000334737    000000002300000000100051409045087020911112222        03460987709                 03460987709                 999925000052
000005DA0005152205832205836393470000334737    000000003000000000100051409053648750511112222        03460987709                 03460987709                 999925000052
000006DA0005156006486006486006480000000000000 00000004000000000010005141008552025091               640363572667                03095096908                 999925000052
000007DA000515639390639390923451384168        000000000500000000100051411100312362192345138        923451384168                03451384168                 999925000052
000008DA0005156278736278734649513301037140    0000000001000000001000514111759938631rand            33010104649498              03166500364                 999925000052
000009DA000515639390639390923166500364        000000000600000000100051411194125071792316650        923166500364                03166500364                 999925000052
000010DA00051558188658188630950969081         0000000001000000001000514124208671756CUST-002        30950969081                 03095096908                 999925000052
000011DA0005152205832205836393470000988037    000000005000000000100051413460577408011112222        03204118373                 03204118373                 999925000052
000012DA0005152205832205836393470000223310    000000000100000000100051414505146516111112222        03239824220                 03239824220                 999925000052
000013DA0005156278736278734649510309032958    0000000012000000001000514151657632003rand            03090105594452              03361292924                 999925000052
000014DA0005156006486006487082363610495858319 000000100000000000100051415235870823600000108        04317900543203              03334004668                 999925000052
000015DA00051555904955904903449452046         000000000100000000100051415240092056901070000        03449452046                 03454455044                 999925000000
000016DA00051562727162727101733340201         0000002000000000001000514182240599644ONLINE          01733340201                 03213696930                 999925000000
000017DA0005156271004025836271003320199109569 00000198260000000010005141853534610915050            40011006627639              03014376331                 999925000000
000018DA000515639390639390923004549218        000000400000000000100051419383154054192300454        923004549218                03000329218                 999925000000
000019DA000515639390639390923004549218        000000700000000000100051419580683831292300454        923004549218                03000329218                 999925000000
000020DA0005156278736278734649510309032958    0000000600000000001000514201333808766rand            03090105594452              03361292924                 999925000000
000021DA000515639390639390923163344116        000000001000000000100051420185115077892316334        923163344116                03454455044                 999925000000
000022DA0005156014929586006014920001000013    000000063000000000100051420232279470700000133        01078845554163261383        03104738770                 999925000000
000023DA0005152205832205836393470000238904    000000140000000000100051420295071027811112222        03484547076                 03484547076                 999925000000
000024DA0005156278736278734649510136046452    0000000191000000001000514211239905877rand            01360105134831              03402668342                 999925000000
000025DA00051558188658188630950969081         0000000099000000001000514223001692742CUST-002        30950969081                 03095096908                 999925000000
000026FO20220515072315
