000000HE20220517073712
000001DA000517999925999925999925149587728848  000000000100000000100051600045532884883644350        03024231938                 02120101989974              627873000051
000002DA000517999925999925999925150800928850  000000000100000000100051600050832885083644350        03024231938                 02120101989974              627873000051
000003DA000517639390639390923000205959        000000060000000000100051600085681802992300020        923000205959                03000205959                 999925000051
000004DA000517999925999925999925544737528854  000013800000000002760051601104770885483644350        03218141444                 6023720614714115143         601724000051
000005DA000517999925999925999925199834228858  000000050000000000100051602595888885883644350        03095096908                 03095096908                 559049000051
000006DA00051755904955904903407952908         000000050000000000100051603280808056901070000        03407952908                 03407952908                 999925000051
000007DA000517999925999925999925945362328861  000000006900000000100051605041316886183644350        03008090323                 03008090323                 559049000051
000008DA000517999925999925999925947170928863  000000006900000000100051605043180886383644350        03008090323                 03008090323                 559049000051
000009DA000517999925999925999925952057428866  000000006900000000100051605052009886683644350        03008090323                 03008090323                 559049000051
000010DA000517999925999925999925967119028869  000000096200000000100051605075112886983644350        03008090323                 03008090323                 585953000051
000011DA0005172205832205836393470000988037    000000005000000000100051605100791467711112222        03204118373                 03204118373                 999925000051
000012DA000517639390639390923019856467        000000010000000000100051605440090162192301985        923019856467                03019856467                 999925000051
000013DA0005172205852205573230423617483       000000180000000000100051606305177170618200133        03170756645         20586   03170756645                 999925000000
000014DA00051755904955904903047286362         000000010000000000100051606580216057001070000        03047286362                 03047286362                 999925000052
000015DA000517999925999925999925651014328873  000000000300000000100051607015080887383644350        03017536671                 03017536671                 639390000051
000016DA000517999925999925999925656701328878  000000000200000000100051607024770887883644350        03017536671                 03017536671                 639390000051
000017DA000517639390639390923017536671        000000000300000000100051607042515644792301753        923017536671                03017536671                 999925000051
000018DA0005176006486006486006480000000000000 00000012500000000010005160754352014891               640367658211                03064990837                 999925000051
000019DA000517999925999925999925981552228882  000000125600000000100051607565508888283644350        03064990837                 03064990837                 603733000051
000020DA000517999925999925999925144639528886  000000000500000000100051608240664888683644350        03407952908                 03407952908                 559049000051
000021DA000517999925999925999925539823328890  000000000100000000100051609295881889083644350        03357777876                 08310105551268              627873000052
000022DA000517999925999925999925652004328893  000000250000000000100051609484021889383644350        03444447437                 0649478931002472            589388000052
000023DA000517999925999925999925845083828897  000000007000000000100051610205078889783644350        03491068298                 03048672115                 639390000052
000024DA000517999925999925999925853529528901  000000001000000000100051610221547890183644350        03061914146                 03061914146                 585953000052
000025DA000517999925999925999925879418828906  000000000100000000100051610263438890683644350        03333796987                 03333796987                 559049000052
000026DA000517999925999925999925013811728909  000001000000000000100051610485853890983644350        03494942834                 01718427301                 627271000052
000027DA000517999925999925999925015594328911  000001000000000000100051610491567891183644350        03494942834                 01718427301                 627271000052
000028DA0005172205832205836393470000237336    000000600000000000100051610534863621011112222        03008124488                 03008124488                 999925000052
000029DA000517999925999925999925128988228915  000000050000000000100051611080984891583644350        03407952908                 03407952908                 559049000052
000030DA000517999925999925999925182994428923  000000103000000000100051611170940892383644350        03104738770                 4163261383                  958600000052
000031DA000517999925999925999925202391328927  000000600000000000100051611202438892783644350        03008124488                 03008124488                 478278000052
000032DA000517999925999925999925830249028936  000000000100000000100051613050228893683644350        03357777876                 08310105551268              627873000052
000033DA0005176278736278734649510819002798    0000000600000000001000516143254840972rand            08310105825487              03325122194                 999925000052
000034DA000517999925999925999925394647128940  000000001000000000100051614390642894083644350        03214877304                 03214877304                 559049000052
000035DA00051755904955904903018191111         000000400000000000100051614475462081901070000        03018191111                 03018191111                 999925000000
000036DA0005176271006271006271003520257256003 00000080000000000010005161456326444795050            01371007177677              03214586285                 999925000052
000037DA00051755904955904903457492455         000000001000000000100051615063666022401070000        03457492455                 03457492455                 999925000000
000038DA000517999925999925999925823669728944  000000050000000000100051615503682894483644350        03170823932                 03084678826                 478278000052
000039DA000517999925999925999925285626528947  000000001000000000100051617073642894783644350        03068586585                 03068586585                 559049000000
000040DA000517999925999925999925320892328953  000000000100000000100051617132888895383644350        03166500364                 03166500364                 478278000000
000041DA000517999925999925999925397176228956  000000341000000000100051617261178895683644350        03006016903                 03006016903                 559049000000
000042DA0005172205832205836393470000218245    000000000500000000100051617315384748311112222        03166500364                 03166500364                 999925000000
000043DA000517999925999925999925744882728965  000000360000000000100051618240851896583644350        03335000000                 08747901364203              600648000000
000044DA000517639390639390923018777780        000000167000000000100051618281148951392301877        923018777780                03047846424                 999925000000
000045DA000517999925999925999925790466828970  000000180000000000100051618314402897083644350        03170756645                 03170756645                 559049000000
000046DA000517999925999925999925848293828976  000000080000000000100051618412363897683644350        03218832767                 03218832767                 478278000000
000047DA0005172205832205836393470000626736    000000080000000000100051620052581019611112222        03369557203                 03369557203                 999925000000
000048DA000517999925999925999925454195028984  000000080000000000100051620222246898483644350        03369557203                 03369557203                 478278000000
000049FO20220517073712
