000000HE20220505063449
000001DA00050555904955904903131314158         000000000100000000100050319593140079001070000        03131314158                 03131314158                 999925000000
000002DA000505999925999925999925867675628383  000000005000000000100050403575629838383644350        03081233343                 03452064083                 559049000000
000003DA0005052205832205836393470000290632    000000002000000000100050406463057642011112222        03007353349                 03007353349                 999925000000
000004DA000505999925999925999925898577728386  000000002000000000100050406494508838683644350        03007353349                 03007353349                 478278000000
000005DA000505999925999925999925464394928389  000000007100000000100050411104463838983644350        03085855775                 03085855775                 639390000000
000006DA000505999925999925999925635032628392  000000460000000000100050411391015839283644350        03214586285                 01371007177677              627100000000
000007DA0005052205832205836393470000314929    000000020000000000100050413001289451311112222        03037340112                 03037340112                 999925000000
000008DA000505999925999925999925206774328395  000000002000000000100050413142731839583644350        03212121831                 03212121831                 585953000000
000009DA0005056006486006481273693740509116715 000000500000000000100050415114412736900000108        22907900927703              03213696930                 999925000000
000010DA000505999925999925999925310939928405  000000005000000000100050416182924840583644350        03107537091                 03107537091                 559049000000
000011DA000505639390639390923450140529        000000005000000000100050416260849067892345014        923450140529                PK90TAGM0000003107537091    999925000000
000012DA0005056278736278734649510831005209    0000001000000000001000504162924662589rand            08310105551268              03365133667                 999925000000
000013DA0005056278736278734649510831005209    0000000005000000001000504163502876838rand            08310105551268              03357777876                 999925000000
000014DA0005056278736278734649519979008669    0000001000000000001000504170022983773rand            99790106327887              03081233343                 999925000000
000015DA000505639390639390923018191111        000000037000000000100050417124490080192301819        923018191111                03018191111                 999925000000
000016DA00050562727162727118729252701         0000006200000000001000504191744382443ONLINE          18729252701                 03225114400                 999925000000
000017DA000505999925999925999925394362728409  000000300000000000100050419190399840983644350        03338491073                 02170101098180              627873000000
000018DA000505999925999925999925589518828412  000000150000000000100050419513568841283644350        03004259404                 10767901706803              600648000000
000019DA000505999925999925999925989278728415  000000000200000000100050420581246841583644350        03017536671                 03017536671                 585953000000
000020DA0005052205832205836393470000259611    000000030000000000100050421131087562711112222        03246006289                 03029297087                 999925000000
000021DA000505999925999925999925147494928418  000000030000000000100050421243523841883644350        03029297087                 03029297087                 478278000000
000022DA000505999925999925999925331457828421  000000100000000000100050421551439842183644350        03445640092                 08310105823367              627873000000
000023DA000505999925999925999925449378328424  000000550000000000100050422145384842483644350        03314226483                 02840105179405              627873000000
000024DA0005052205832205836393470000331006    000000120000000000100050422152346249211112222        03347980807                 03347980807                 999925000000
000025DA0005056278736278734649510831005910    0000003500000000001000504221616555700rand            08310105736555              03345442244                 999925000000
000026DA0005056278736278734649510831006520    0000001000000000001000504223308323208rand            08310105912335              03311355553                 999925000000
000027DA000505639390639390923228089945        000000002000000000100050423071216745392322808        923228089945                03228089945                 999925000000
000028DA00050562727162727101728930401         0000007500000000001000504233905940443ONLINE          01728930401                 03338491073                 999925000000
000029DA000505999925999925999925968667428428  000000350000000000100050423412643842883644350        03338491073                 02170101098180              627873000000
000030FO20220505063449
