000000HE20220501084548
000001DA00050155904955904903068586585         000000000900000000100042919181224046001070000        03068586585                 03068586585                 999925000051
000002DA00050155904955904903041283878         000000005200000000100042923175536049801070000        03041283878                 03041760002                 999925000051
000003DA000501999925999925999925986097528122  000000000900000000100043000174016812283644350        03068586585                 03068586585                 559049000051
000004DA0005016278736278735245210251003165    0000000200000000001000430020618307739rand            02510104037187              03494942834                 999925000051
000005DA0005012205852205571730170101979       000000160000000000100043004500278810818200133        03018191111         20586   03018191111                 999925000000
000006DA0005016278736278734649510831005910    0000002000000000001000430045140599674rand            08310105736555              03149998880                 999925000051
000007DA0005016278736278734649510831005209    0000003500000000001000430050458411743rand            08310105551268              03149998880                 999925000051
000008DA00050155904955904903453072737         000000500000000000100043006121448092601070000        03453072737                 03453072737                 999925000052
000009DA0005012205852205573320369583946       000000010000000000100043006513179538218200133        03453763285         20586   03007669524                 999925000000
000010DA000501999925999925999925798364828134  000000006000000000100043008062334813483644350        03150382071                 03093781159                 478278000051
000011DA000501999925999925999925194714528137  000000050000000000100043009122727813783644350        03150382071                 03093781159                 478278000052
000012DA000501999925999925999925249325328140  000000120000000000100043009213309814083644350        03486721366                 03486721366                 559049000052
000013DA0005016006486006486006480000000000000 00000005200000000010004301014362195281               640363572667                03095096908                 999925000000
000014DA0005012205852205573520113024605       000000000500000000100043010253470526118200133        03112008838         20586   03112008838                 999925000000
000015DA0005012205852205573840375693070       000000005000000000100043011460471018018200133        03168909253         20586   03486721366                 999925000000
000016DA00050162727162727101287655801         0000001600000000001000430114954989670ONLINE          01287655801                 03149998880                 999925000052
000017DA0005012205852205573840494686252       000000005000000000100043011515571057218200133        03100145883         20586   03486721366                 999925000000
000018DA0005012205852205573830298272770       000000005000000000100043011561871081818200133        03100145893         20586   03486721366                 999925000000
000019DA0005012205852205573840375940020       000000005000000000100043012573474740618200133        03411786371         20586   03486721366                 999925000051
000020DA0005012205832205836393470000221561    000000050000000000100043014004677573711112222        03170823932                 03170823932                 999925000052
000021DA0005016006486006484034393520174980455 000000030000000000100043014252840343900000108        24497000602803              03124554827                 999925000052
000022DA000501999925999925999925934372028150  000000001000000000100043016490315815083644350        03062666676                 03062666676                 220591000000
000023DA000501999925999925999925934814728152  000000215000000000100043016490806815283644350        03117858316                 01705728901                 627271000000
000024DA000501999925999925999925041811028155  000000100000000000100043017065849815583644350        03329376584                 08070103526268              627873000000
000025DA0005016278736278735160620306005042    0000002000000000001000430170923992848rand            03060104164176              03018191111                 999925000000
000026DA000501999925999925999925061721528161  000000000300000000100043017101728816183644350        03336627798                 04210106586575              627873000000
000027DA0005012205832205836393470001067278    000000420000000000100043017323890704011112222        03034386087                 03034386087                 999925000000
000028DA000501999925999925999925215804528164  000000420000000000100043017355873816483644350        03034386087                 03034386087                 603733000000
000029DA0005016278736278734649510263004779    0000010000000000001000430174154409218rand            02630103229756              03471014900                 999925000000
000030DA00050155904955904903085855775         000000000300000000100043018081310051501070000        03085855775                 03085855775                 999925000000
000031DA00050155904955904903151452444         000000000500000000100043018511212070701070000        03151452444                 03151452444                 999925000000
000032DA000501999925999925999925781801528167  000000010000000000100043019101832816783644350        03007669524                 03453763285                 220557000000
000033DA000501999925999925999925890012428171  000000006000000000100043019282088817183644350        03000205959                 03000205959                 639390000000
000034DA000501999925999925999925116704628176  000000005000000000100043020060774817683644350        03491068298                 03491068298                 559049000000
000035DA000501999925999925999925283470728180  000000050000000000100043020335460818083644350        03065698699                 03428335218                 639390000000
000036DA0005016278736278734649520981028570    0000023450000000001000430205225408315rand            09810100235241              03036082381                 999925000000
000037DA0005016006486006488068493210336766253 000000400000000000100043021354380684900000108        04087900645403              03065698699                 999925000000
000038DA000501639390639390923065698699        000000050000000000100043022100096943492306569        923065698699                03065698699                 999925000000
000039DA000501999925999925999925898282528183  000000020000000000100043022162344818383644350        03484547076                 03484547076                 559049000000
000040DA000501999925999925999925924131928186  000000000500000000100043022204184818683644350        03112008838                 03112008838                 220557000000
000041DA000501999925999925999925952806528189  000002000000000000100043022252845818983644350        03036082381                 03036082381                 559049000000
000042DA000501999925999925999925956804828192  000000345000000000100043022260854819283644350        03036082381                 03036082381                 559049000000
000043DA000501639390639390923435337774        000000005000000000100043022524457923292343533        923435337774                03491068298                 999925000000
000044DA000501999925999925999925179506428195  000000000200000000100043023031522819583644350        03065698699                 03065698699                 639390000000
000045DA000501639390639390923065698699        000000000100000000100043023052873340092306569        923065698699                03065698699                 999925000000
000046DA000501639390639390923065698699        000000000100000000100043023063974742692306569        923065698699                03065698699                 999925000000
000047DA000501999925999925999925207703628198  000000000150000000100043023075767819883644350        03065698699                 03065698699                 639390000000
000048DA000501639390639390923065698699        000000000100000000100043023102479261992306569        923065698699                03065698699                 999925000000
000049FO20220501084548
