000000HE20220518072213
000001DA00051855904955904903094131136         000000000600000000100051700463204017101070000        03094131136                 03156292997                 999925000051
000002DA00051855904955904903094131136         000000000100000000100051700464604017201070000        03094131136                 03156292997                 999925000051
000003DA0005186006486006488039174220125112245 000000200000000000100051702264780391700000108        54357000012103              03482314269                 999925000051
000004DA000518999925999925999925658706228989  000000200000000000100051702294757898983644350        03482314269                 03482314269                 478278000051
000005DA0005186006486006486006480000000000000 00000000200000000010005170305312591171               640358210317                03004354975                 999925000052
000006DA000518639390639390923400877864        000000060000000000100051705130506062192340087        923400877864                03024349416                 999925000051
000007DA0005182205832205836393470000988037    000000005000000000100051705155669900611112222        03204118373                 03204118373                 999925000051
000008DA000518999925999925999925413318728996  000000141799000000100051707221338899683644350        03047047047                 10947900613403              600648000051
000009DA00051855904955904903151452444         000000043000000000100051707331718046201070000        03151452444                 03151452444                 999925000052
000010DA0005186006486006486006480000000000000 00000000050000000010005170809252643791               640359620371                03332144454                 999925000000
000011DA000518639390639390923035900565        000001000000000000100051708231414370892303590        923035900565                03078503336                 999925000051
000012DA000518999925999925999925987466829002  000000004000000000100051708575405900283644350        03350516640                 08310106449273              627873000051
000013DA000518999925999925999925125214929008  000000010000000000100051709205206900883644350        03491068298                 03048672115                 639390000052
000014DA00051855904955904903333796987         000000230000000000100051709502432004901070000        03333796987                 03200561045                 999925000052
000015DA000518999925999925999925388307029011  000000000100000000100051710044350901183644350        03357777876                 08310105551268              627873000052
000016DA000518999925999925999925448813429014  000000001300000000100051710144824901483644350        03460987709                 03460987709                 478278000052
000017DA000518999925999925999925461901829017  000000007000000000100051710165830901783644350        03460987709                 03460987709                 478278000052
000018DA0005182205832205836393470000334737    000000008500000000100051710204067885611112222        03460987709                 03460987709                 999925000052
000019DA000518639390639390923448815992        000001000000000000100051710554082304292344881        923448815992                03450539199                 999925000052
000020DA000518639390639390923212903484        000000001200000000100051711334432862692321290        923212903484                03212903484                 999925000052
000021DA000518999925999925999925944818029020  000000005000000000100051711372838902083644350        03117099414                 03117099414                 559049000052
000022DA0005186278736278734649510831005209    0000001300000000001000517143521894109rand            08310105551268              03200561045                 999925000052
000023DA000518639390639390923093357930        000000002000000000100051714492577963292309335        923093357930                03093357930                 999925000052
000024DA000518639390639390923454993285        000000001000000000100051714493578135692345499        923454993285                03454993285                 999925000052
000025DA000518639390639390923303940958        000000001000000000100051714512180068892330394        923303940958                03477081904                 999925000052
000026DA0005186278736278732345671802007935    0000000020000000001000517145219109005rand            18020106695955              03474808938                 999925000052
000027DA000518999925999925999925128155329040  000000000100000000100051714544127904083644350        03227093017                 00441007022546              627100000052
000028DA000518999925999925999925221883529041  000000000100000000100051715101812904183644350        03227093017                 00441007022546              627100000052
000029DA000518999925999925999925242602229042  000000000001000000100051715134680904283644350        03227093017                 00441007022546              627100000052
000030DA000518639390639390923452799188        000000002000000000100051715325828885792345279        923452799188                03069119399                 999925000052
000031DA000518999925999925999925399513429043  000000000000000000100051715395579904383644350        03227093017                 00441007022546              627100000052
000032DA000518999925999925999925416389829044  000000000001000000100051715424333904483644350        03227093017                 00441007022546              627100000052
000033DA00051855904955904903107537091         000000005000000000100051716031570021001070000        03107537091                 03107537091                 999925000000
000034DA000518999925999925999925156547029051  000000210000000000100051717460595905183644350        03338491073                 02170101098180              627873000000
000035DA000518999925999925999925157947129053  000000210000000000100051717461911905383644350        03338491073                 02170101098180              627873000000
000036DA0005186278736278732345670231019908    0000005000000000001000517181808723830rand            02310105981504              03164947782                 999925000000
000037DA000518999925999925999925291374729057  000000370000000000100051720551332905783644350        03200561045                 08310105645109              627873000000
000038DA000518999925999925999925847260329063  000000005000000000100051722275205906383644350        03107537091                 03067666341                 585953000000
000039DA000518999925999925999925848727129065  000000005000000000100051722280757906583644350        03107537091                 03067666341                 585953000000
000040DA00051862727162727101733340201         0000005000000000001000517232644512106ONLINE          01733340201                 03213696930                 999925000000
000041DA000518639390639390923403785928        000000001000000000100051723334543455192340378        923403785928                03403785928                 999925000000
000042DA000518639390639390923403785928        000000002000000000100051723375246363392340378        923403785928                03403785928                 999925000000
000043DA000518999925999925999925301506229070  000000002200000000100051723433596907083644350        03368122236                 08310105145985              627873000000
000044FO20220518072213
