000000HE20220502085521
000001DA00050255904955904903036657426         000000005000000000100043022585328037901070000        03036657426                 03036657426                 999925000000
000002DA000502639390639390923065698699        000000550000000000100050100105145888692306569        923065698699                03065698699                 999925000000
000003DA000502639390639390923065698699        000000002500000000100050100122948055592306569        923065698699                03065698699                 999925000000
000004DA000502999925999925999925608633428206  000000000500000000100050100144679820683644350        03065698699                 03065698699                 585953000000
000005DA000502639390639390923434433003        000000016000000000100050100565191594992343443        923434433003                03434433003                 999925000000
000006DA000502999925999925999925876994328210  000000150000000000100050100593005821083644350        03338491073                 1342261524219               588974000000
000007DA000502639390639390923065698699        000000000400000000100050101461922382492306569        923065698699                03065698699                 999925000000
000008DA0005022205832205836393470000265071    000000039000000000100050102242863497611112222        03407952908                 03407952908                 999925000000
000009DA000502999925999925999925718521428213  000000170000000000100050103194532821383644350        03154074223                 03154074223                 639390000000
000010DA000502639390639390923154074223        000000050000000000100050103275562030592315407        923154074223                03154074223                 999925000000
000011DA000502999925999925999925851254828216  000000005000000000100050103415263821683644350        03107537091                 03107537091                 559049000000
000012DA00050255904955904903447493042         000000004000000000100050103461538009301070000        03447493042                 03447493042                 999925000000
000013DA000502999925999925999925958944528219  000000005000000000100050103594948821983644350        03036657426                 03036657426                 585953000000
000014DA00050255904955904903085855775         000000007100000000100050104000138020001070000        03085855775                 03085855775                 999925000000
000015DA00050262727162727101733340201         0000005050000000001000501045935999564ONLINE          01733340201                 03213696930                 999925000000
000016DA0005022205852205573320369583946       000000000100000000100050106291374778118200133        03453763285         20586   03007669524                 999925000000
000017DA0005022205852205573320369583946       000000000100000000100050106440774819418200133        03453763285         20586   03007669524                 999925000000
000018DA00050255904955904903230939499         000000013600000000100050107321044068901070000        03230939499                 03012704869                 999925000000
000019DA0005022205852205573230423617483       000000050000000000100050107553671873418200133        03170756645         20586   03170756645                 999925000000
000020DA000502999925999925999925391688428222  000000050500000000100050107583701822283644350        03170756645                 03170756645                 559049000000
000021DA0005022205852205573320369583946       000000004400000000100050108205874993218200133        03453763285         20586   03007669524                 999925000000
000022DA000502999925999925999925732054728226  000000000300000000100050108552032822683644350        03085855775                 03085855775                 639390000000
000023DA000502639390639390923062666676        000000500000000000100050109041040150292306266        923062666676                03062666676                 999925000000
000024DA000502999925999925999925252489228235  000000005100000000100050110220441823583644350        03491068298                 03048672115                 639390000000
000025DA000502999925999925999925409257128240  000000005000000000100050110481242824083644350        03447493042                 03447493042                 559049000000
000026DA000502639390639390923062666676        000000444400000000100050110484754273292306266        923062666676                03062666676                 999925000000
000027DA000502639390639390923062666676        000000444400000000100050110523059131292306266        923062666676                03062666676                 999925000000
000028DA000502639390639390923062666676        000000280000000000100050110533260485092306266        923062666676                03062666676                 999925000000
000029DA000502999925999925999925566007128244  000000002500000000100050111142092824483644350        03131314158                 03131314158                 478278000000
000030DA0005022205852205573840385339138       000000005000000000100050112013271110318200133        03168713921         20586   03486721366                 999925000000
000031DA0005022205852205573840597467284       000000005000000000100050112180671175518200133        03150825208         20586   03486721366                 999925000000
000032DA0005022205852205573840278105778       000000005000000000100050112390271229818200133        03158438352         20586   03486721366                 999925000000
000033DA000502999925999925999925532359828248  000000400000000000100050113552300824883644350        03200561045                 08310105645109              627873000000
000034DA00050255904955904903024231938         000000110000000000100050114441376034101070000        03024231938                 03024231938                 999925000000
000035DA000502999925999925999925044092128252  000001530000000000100050115204089825283644350        03062666676                 98040106227394              627873000000
000036DA000502999925999925999925064474228255  000001000000000000100050115240475825583644350        03471014900                 03471014900                 639390000000
000037DA000502999925999925999925084589828258  000003000000000000600050115272616825883644350        03006339990                 03006339990                 585953000000
000038DA000502999925999925999925555914628262  000000000100000000100050116455903826283644350        03172873825                 03172873825                 585953000000
000039DA0005022205832205836393470000626496    000000002000000000100050117525164971211112222        03027424731                 03027424731                 999925000000
000040DA000502999925999925999925985711228265  000000002000000000100050117573790826583644350        03027424731                 03027424731                 478278000000
000041DA000502999925999925999925025135328268  000000001600000000100050118041145826883644350        03094567739                 03094567739                 478278000000
000042DA000502999925999925999925067627628271  000000003100000000100050118111649827183644350        03137329384                 03137329384                 478278000000
000043DA000502639390639390923219861883        000000050000000000100050118254471646392321986        923219861883                03095096908                 999925000000
000044DA000502999925999925999925174335028274  000000010000000000100050118290360827483644350        03203538368                 03203538368                 478278000000
000045DA000502999925999925999925179164228277  000000000100000000100050118295187827783644350        03007669524                 03453763285                 585953000000
000046DA0005022205832205836393470000381159    000000025000000000100050118425985962111112222        03203538368                 03203538368                 999925000000
000047DA000502999925999925999925269323328280  000000000100000000100050118445388828083644350        03007669524                 03007683456                 585953000000
000048DA0005026271006271006271003410161554687 00000009950000000010005012212400493265050            00061006152776              03336755600                 999925000000
000049DA000502639390639390923065698699        000000010000000000100050123321243241592306569        923065698699                03065698699                 999925000000
000050FO20220502085521
