000000HE20220511072902
000001DA000511639390639390923135098526        000000050000000000100051000352226777892313509        923135098526                03065698699                 999925000051
000002DA000511999925999925999925850666628648  000000000168000000100051001350613864883644350        03065698699                 03003524185                 639390000051
000003DA00051155904955904903444100000         000000054700000000100051002204148035601070000        03444100000                 03444100000                 999925000051
000004DA000511999925999925999925372516428651  000000005000000000100051008352552865183644350        03482314269                 54357000012103              600648000051
000005DA00051155904955904903018191111         000000300000000000100051008360266092401070000        03018191111                 03018191111                 999925000052
000006DA000511999925999925999925001763228658  000000021900000000100051010201742865883644350        03124398910                 01287903020903              600648000052
000007DA00051155904955904903029409182         000000000500000000100051010382680030401070000        03029409182                 03029409182                 999925000052
000008DA0005116278736278734649510831007007    0000000800000000001000510114759689592rand            08310106313672              03200561045                 999925000052
000009DA0005112205832205836393470000472917    000001000000000000100051012183958501611112222        03010326855                 03053436655                 999925000052
000010DA000511999925999925999925731402528664  000001000000000000100051012215473866483644350        03053436655                 03010326855                 478278000052
000011DA000511639390639390923219861883        000000050000000000100051012291997306192321986        923219861883                03095096908                 999925000052
000012DA0005116278736278734649510831005910    0000001800000000001000510141255548061rand            08310105736555              03325310646                 999925000052
000013DA0005116278736278734649510831005563    0000001550000000001000510142338966814rand            08310105645109              03325310646                 999925000052
000014DA0005116278736278734649510831006520    0000001800000000001000510143328674012rand            08310105912335              03325310646                 999925000052
000015DA000511999925999925999925595273328667  000000002000000000100051014455228866783644350        03491068298                 03048672115                 639390000052
000016DA000511999925999925999925654383928670  000000000600000000100051014554303867083644350        03491068298                 03455299060                 639390000052
000017DA000511999925999925999925660316928673  000000000100000000100051014564302867383644350        03491068298                 03455299060                 639390000052
000018DA000511999925999925999925852322728676  000000510000000000100051015284304867683644350        03325310646                 00351002486115              627100000052
000019DA0005116274086274086023720614714115143 000000220000000000100051017353277875800000HMB        6023720614714115143         03218141444                 999925000000
000020DA000511999925999925999925953597328680  000000030000000000100051018321553868083644350        03486721366                 03486721366                 559049000000
000021DA00051155904955904903018191111         000000450000000000100051018532722027101070000        03018191111                 03018191111                 999925000000
000022DA000511999925999925999925681898328689  000000050000000000100051020333856868983644350        03095096908                 03095096908                 559049000000
000023DA000511999925999925999925137736828692  000000004600000000100051021493708869283644350        03036895453                 03036895453                 585953000000
000024DA0005112205832205836393470000372711    000000029500000000100051023195746638811112222        03082893132                 03082893132                 999925000000
000025DA000511999925999925999925765543828695  000000040800000000100051023341502869583644350        03024231938                 03024231938                 559049000000
000026FO20220511072902
