000000HE20220508065711
000001DA000508639390639390923000205959        000000075000000000100050700554412297592300020        923000205959                03000205959                 999925000051
000002DA0005082205852205573230423617483       000000080000000000100050706453877645918200133        03170756645         20586   03170756645                 999925000051
000003DA000508999925999925999925800298628510  000000080000000000100050706464304851083644350        03170756645                 03170756645                 559049000051
000004DA00050855904955904903036657426         000000020000000000100050707202848072401070000        03036657426                 03036657426                 999925000052
000005DA000508999925999925999925305553028513  000000000500000000100050708105596851383644350        03451384168                 03451384168                 639390000051
000006DA0005082205852205573320275452587       000000005000000000100050709015279987518200133        03130000299         20586   03130000299                 999925000000
000007DA000508639390639390923460987709        000000001000000000100050711232125585492346098        923460987709                03460987709                 999925000052
000008DA000508999925999925999925985405528523  000000020000000000100050712505410852383644350        03036657426                 03036657426                 559049000052
000009DA000508639390639390923117099414        000000000200000000100050713191878984192311709        923117099414                03117099414                 999925000052
000010DA0005086274086274086023720614714115143 000000250000000000100050713192348436200000HMB        6023720614714115143         03218141444                 999925000000
000011DA0005082205832205836393470000949609    000000020000000000100050714185280157811112222        03029297087                 03029297087                 999925000052
000012DA000508999925999925999925039988228527  000000000100000000100050715463936852783644350        03452069413                 03452069413                 639390000052
000013DA000508639390639390923364547826        000000003000000000100050716282103319892336454        923364547826                03364547826                 999925000000
000014DA000508999925999925999925299176628530  000000001000000000100050716295182853083644350        03364547826                 03364547826                 559049000000
000015DA000508999925999925999925526727028533  000001000000000000100050717074756853383644350        03327351330                 03327351330                 639390000000
000016DA000508639390639390923334932847        000000085000000000100050717414493899292333493        923334932847                03334932847                 999925000000
000017DA0005082205832205836393470000268919    000000016000000000100050718044364187711112222        03224918232                 03224918232                 999925000000
000018DA000508999925999925999925900428128536  000000016000000000100050718100412853683644350        03224918232                 03224918232                 478278000000
000019DA000508999925999925999925935601428540  000000061800000000100050723491684854083644350        03004259404                 03004259404                 559049000000
000020FO20220508065711
