000000HE20220507065942
000001DA0005072205832205836393470000231685    000000400000000000100050600402691198511112222        03214849143                 03214849143                 999925000051
000002DA000507639390639390923224918232        000000020000000000100050603373927277692322491        923224918232                03224918232                 999925000051
000003DA00050755904955904903071915354         000000010000000000100050605430572044001070000        03071915354                 03071915354                 999925000052
000004DA000507999925999925999925976924628467  000000015000000000100050606160963846783644350        03036454336                 03036454336                 478278000051
000005DA0005076274086274086023720614714115143 000000330000000000100050609215839032600000HMB        6023720614714115143         03218141444                 999925000052
000006DA000507999925999925999925595189128471  000000010000000000100050610455269847183644350        03071915354                 03071915354                 559049000052
000007DA00050755904955904903016921435         000000700000000000100050612194596083201070000        03016921435                 03016921435                 999925000000
000008DA0005072205832205836393470000217866    000000000700000000100050612580658053711112222        03132885816                 03012704869                 999925000052
000009DA0005072205832205836393470000248580    000000004000000000100050613341973730611112222        03094567739                 03094567739                 999925000052
000010DA000507639390639390923174459870        000000001000000000100050614513677615192317445        923174459870                03061914146                 999925000052
000011DA000507999925999925999925124856128483  000000000500000000100050615004882848383644350        03163344116                 03449452046                 559049000052
000012DA000507999925999925999925495375528487  000000500000000000100050616023387848783644350        03225114400                 03225114400                 639390000000
000013DA000507999925999925999925511860228490  000000020000000000100050616051895849083644350        03224918232                 03224918232                 478278000000
000014DA0005072205832205836393470000218393    000000049100000000100050616294283151911112222        03047047047                 03047047047                 999925000000
000015DA0005076278736278734649510309032958    0000000020000000001000506163131211331rand            03090105594452              03361292924                 999925000000
000016DA000507999925999925999925678647628499  000000049900000000100050616330687849983644350        03047047047                 10947900613403              600648000000
000017DA00050762727162727118729252701         0000005000000000001000506164357323344ONLINE          18729252701                 03225114400                 999925000000
000018DA000507999925999925999925327208328503  000000020000000000100050618211280850383644350        03347980807                 03347980807                 478278000000
000019DA0005076006486006481110013520284766821 000000200000000000100050618452011100100000108        12487991863703              03024231938                 999925000000
000020DA00050758188658188630181911115         0000003000000000001000506184550342221CUST-001        30181911115                 03018191111                 999925000000
000021DA000507639390639390923354305015        000000800000000000100050619114829328992335430        923354305015                03113065015                 999925000000
000022DA00050758188658188633372572012         0000000020000000001000506194356345054CUST-001        33372572012                 03337257201                 999925000000
000023DA0005072205832205836393470000240512    000000000100000000100050620114066355211112222        03343008808                 03343008808                 999925000000
000024DA0005072205832205836393470000626736    000000061200000000100050620371280010711112222        03369557203                 03369557203                 999925000000
000025DA000507639390639390923117099414        000000001000000000100050622592929334992311709        923117099414                03117099414                 999925000000
000026DA00050758188658188634513841680         0000000005000000001000506230303353184CUST-005        34513841680                 03451384168                 999925000000
000027DA000507999925999925999925108050828506  000000150000000000100050623180007850683644350        03326262525                 03326262525                 639390000000
000028FO20220507065942
