000000HE20220504062850
000001DA0005046278736278734649510244004070    0000002000000000001000503001015200676rand            02440101402168              03078503336                 999925000000
000002DA000504999925999925999925969915628347  000000010000000000100050300281938834783644350        03333379895                 03333379895                 559049000000
000003DA000504999925999925999925016772628350  000000013800000000100050300360732835083644350        03024231938                 03024231938                 478278000000
000004DA000504999925999925999925046242428353  000000100000000000100050300410265835383644350        03214586285                 03218402961                 639390000000
000005DA000504639390639390923000205959        000000066000000000100050300445481038092300020        923000205959                03000205959                 999925000000
000006DA00050462727162727108175120101         0000000200000000001000503005324286864ONLINE          08175120101                 03365099739                 999925000000
000007DA000504639390639390923365099739        000000060000000000100050301025395049592336509        923365099739                03365099739                 999925000000
000008DA00050462727162727101733340201         0000005000000000001000503013709398454ONLINE          01733340201                 03213696930                 999925000000
000009DA000504999925999925999925267553428360  000000100000000000100050304043550836083644350        03156168866                 07400010081250960014        589430000000
000010DA0005046006486006482028113740508175265 000000500000000000100050311464220281100000108        23397902052303              03213696930                 999925000000
000011DA000504999925999925999925489448728363  000000015000000000100050313013425836383644350        03434433003                 03434433003                 639390000000
000012DA000504999925999925999925673928428367  000000000100000000100050313321932836783644350        03006359982                 03006359982                 559049000000
000013DA0005046278736278734649510187034795    0000000200000000001000503141750978192rand            01870102853913              03081233343                 999925000000
000014DA000504999925999925999925958685728371  000000025000000000100050314194610837183644350        03081233343                 03318485274                 585953000000
000015DA0005046271006271006271003460255180901 00000050300000000010005031436514059755050            07191006938925              03083941515                 999925000000
000016DA000504999925999925999925165753228374  000001500000000000100050314541736837483644350        03004259404                 03004259404                 559049000000
000017DA000504999925999925999925448590928377  000000505000000000100050315412588837783644350        03083941515                 03083941515                 559049000000
000018DA000504639390639390923365440479        000000200000000000100050321015320960492336544        923365440479                03494942834                 999925000000
000019DA000504999925999925999925509045828380  000000002600000000100050321245007838083644350        03081233343                 03322956288                 478278000000
000020DA000504639390639390923000205959        000000015000000000100050323484041565392300020        923000205959                03000205959                 999925000000
000021DA000504639390639390923000205959        000000015000000000100050323505042587892300020        923000205959                03000205959                 999925000000
000022FO20220504062850
