000000HE20220513073803
000001DA00051355904955904903172873825         000000005000000000100051120392412065401070000        03172873825                 03172873825                 999925000051
000002DA00051355904955904903068586585         000000000600000000100051200064016082101070000        03068586585                 03068586585                 999925000051
000003DA000513639390639390923435368639        000000001000000000100051201214788313192343536        923435368639                03435368639                 999925000051
000004DA0005136006486006488062854220125112245 000000090000000000100051204331880628500000108        54357000012103              03482314269                 999925000051
000005DA0005132205832205836393470000334737    000000001000000000100051205532153241311112222        03460987709                 03460987709                 999925000051
000006DA00051355904955904903036454336         000000010000000000100051208191736067801070000        03036454336                 03438632952                 999925000052
000007DA0005132205832205836393470000372711    000000084900000000100051209253257374011112222        03082893132                 03082893132                 999925000052
000008DA0005136278736278734649519979008669    0000002000000000001000512121330252465rand            99790106327887              03081233343                 999925000052
000009DA0005132205852205573320369583946       000000103400000000100051212152573528718200133        03453763285         20586   03007669524                 999925000052
000010DA000513639390639390923124398910        000000100000000000100051212441484468292312439        923124398910                03124398910                 999925000052
000011DA000513639390639390923018191111        000000200000000000100051215212272580892301819        923018191111                03018191111                 999925000052
000012DA000513639390639390923061668228        000000010000000000100051216413570834492306166        923061668228                03202988228                 999925000000
000013DA00051355904955904903170756645         000000066000000000100051217321586079901070000        03170756645                 03170756645                 999925000000
000014DA000513639390639390923017536671        000000000200000000100051219062271611092301753        923017536671                03017536671                 999925000000
000015DA0005136006486006481490163520284766821 000000200000000000100051219071814901600000108        12487991863703              03024231938                 999925000000
000016DA0005136278736278735245210251003165    0000025000000000001000512191004244336rand            02510104037187              03494942834                 999925000000
000017DA0005132205832205836393470000372711    000000022900000000100051223413847582111112222        03082893132                 03082893132                 999925000000
000018FO20220513073803
