000000HE20220506064222
000001DA00050655904955904903334931007         000000500000000000100050423174904039901070000        03334931007                 03334931007                 999925000000
000002DA000506999925999925999925241724228431  000000100000000000100050500265762843183644350        03347980807                 03006439527                 585953000000
000003DA000506639390639390923058722297        000000100000000000100050500291368771192305872        923058722297                03219555593                 999925000000
000004DA000506639390639390923058722297        000000015000000000100050500315970504492305872        923058722297                03219555593                 999925000000
000005DA00050655904955904903407952908         000000000100000000100050507060212094501070000        03407952908                 03407952908                 999925000000
000006DA0005062205852205573320369583946       000000014000000000100050509014773293618200133        03453763285         20586   03007669524                 999925000000
000007DA000506999925999925999925505884728434  000000014000000000100050509305987843483644350        03007669524                 03007683456                 639390000000
000008DA000506999925999925999925145094128437  000000100000000000100050511173014843783644350        03009809983                 03009809983                 585953000000
000009DA0005062205832205836393470000265071    000000750000000000100050511580068229511112222        03407952908                 03407952908                 999925000000
000010DA000506999925999925999925400165228440  000000750000000000100050512000139844083644350        03407952908                 03407952908                 559049000000
000011DA00050655904955904903334931007         000000500000000000100050512451834062701070000        03334931007                 03334931007                 999925000000
000012DA00050655904955904903170756645         000000011500000000100050513581536089501070000        03170756645                 03170756645                 999925000000
000013DA0005066278736278735245210251003165    0000001000000000001000505165702327249rand            02510104037187              03494942834                 999925000000
000014DA000506999925999925999925235291428445  000000240000000000100050517055338844583644350        03004259404                 04520010005492650032        589430000000
000015DA000506639390639390923451384168        000000000100000000100050517170655349792345138        923451384168                03451384168                 999925000000
000016DA000506999925999925999925376434628448  000000000100000000100050517292486844883644350        03451384168                 03451384168                 639390000000
000017DA000506639390639390923478572254        000000110000000000100050517320770032892347857        923478572254                03084422108                 999925000000
000018DA000506639390639390923478572254        000000044000000000100050517400377820592347857        923478572254                03084422108                 999925000000
000019DA000506999925999925999925455861628451  000000154000000000100050517423804845183644350        03084422108                 03084422108                 478278000000
000020DA00050655904955904903026576772         000000000500000000100050517515854030601070000        03026576772                 03026576772                 999925000000
000021DA0005066278736278734649510294011900    0000000001000000001000505175607625027rand            02940104474415              03245241663                 999925000000
000022DA000506999925999925999925551562128454  000000000100000000100050517583507845483644350        03245241663                 03245241663                 220591000000
000023DA000506999925999925999925640946128457  000003000000000000600050518132913845783644350        03314496691                 22537900877703              600648000000
000024DA000506639390639390923036657426        000000000100000000100050518503355062692303665        923036657426                03036657426                 999925000000
000025DA000506999925999925999925911319228460  000000001700000000100050518583350846083644350        03154721545                 03154721545                 559049000000
000026DA0005066014929586006014920001000013    000000399400000000100050522130230410900000133        01062435673087587703        03124398910                 999925000000
000027DA000506999925999925999925656786828463  000000000400000000100050523492730846383644350        03065698699                 03065698699                 639390000000
000028FO20220506064222
