000000HE20220510072620
000001DA00051055904955904903117099414         000000001000000000100050821222266060601070000        03117099414                 03117099414                 999925000051
000002DA0005106278736278734649510831005209    0000001000000000001000509010627429278rand            08310105551268              03474354092                 999925000051
000003DA000510639390639390923216261782        000000020000000000100050901350067779992321626        923216261782                03216261782                 999925000051
000004DA00051055904955904903170756645         000000000500000000100050902425872008401070000        03170756645                 03170756645                 999925000051
000005DA000510999925999925999925683507728602  000000020000000000100050905403566860283644350        03124398910                 03306978910                 559049000051
000006DA00051055904955904903038471712         000000200000000000100050909414692055001070000        03038471712                 03038471712                 999925000052
000007DA0005106278736278732345670831003857    0000000010000000001000509105240976500rand            08310106449273              03350516640                 999925000052
000008DA000510999925999925999925579685628608  000000054000000000100050910563689860883644350        03345442244                 03345442244                 639390000052
000009DA0005106278736278734649520831003682    0000000960000000001000509110633824666rand            08310106563367              03041342338                 999925000052
000010DA000510999925999925999925822407928611  000000000600000000100050911370470861183644350        03170756645                 03089221864                 478278000052
000011DA0005102205832205836393470000217866    000000000500000000100050911471062296911112222        03132885816                 03012704869                 999925000052
000012DA000510999925999925999925065529028615  000000010000000000100050912173575861583644350        03491068298                 03048672115                 639390000052
000013DA000510999925999925999925893154428618  000000000100000000100050914353106861883644350        03213538309                 03060022039                 639390000052
000014DA000510999925999925999925956854728621  000000200000000000100050914460843862183644350        03038471712                 03038471712                 559049000052
000015DA0005106278736278734649510309032958    0000000006000000001000509145900908188rand            03090105594452              03361292924                 999925000052
000016DA000510999925999925999925197218928624  000000002000000000100050915261261862483644350        03018191111                 03018191111                 589430000052
000017DA000510999925999925999925251025028627  000000055000000000100050915351015862783644350        03345442244                 03345442244                 639390000052
000018DA0005102205832205836393470000358504    000000146000000000100050916055465654211112222        03036895453                 03036895453                 999925000000
000019DA000510999925999925999925641390128630  000000015000000000100050916401439863083644350        03329007958                 03329007958                 559049000000
000020DA00051055904955904903117099414         000000002000000000100050916553526058301070000        03117099414                 03117099414                 999925000000
000021DA0005102205832205836393470000358504    000000110000000000100050917223379211511112222        03036895453                 03036895453                 999925000000
000022DA0005102205832205836393470000343456    000000001200000000100050919233884496911112222        03491843021                 03491843021                 999925000000
000023DA000510999925999925999925726396328634  000000000100000000100050919410362863483644350        03163344116                 03163344116                 639390000000
000024DA000510639390639390923163344116        000000001000000000100050919480678147692316334        923163344116                03165522449                 999925000000
000025DA0005106006486006481003973220222610701 000001000000000000100050920384010039700000108        05197901654803              03074667478                 999925000000
000026DA0005102205832205836393470000255189    000000033000000000100050920413073754111112222        03334932847                 03334932847                 999925000000
000027DA000510639390639390923215857693        000001350000000000100050921070706502692321585        923215857693                03006413234                 999925000000
000028DA000510999925999925999925260038028638  000000650000000000100050921100063863883644350        03006413234                 03006413234                 559049000000
000029DA000510999925999925999925272329928641  000000500000000000100050921120342864183644350        03006413234                 03006413234                 559049000000
000030DA000510999925999925999925289534128644  000000150000000000100050921145554864483644350        03006413234                 03006413234                 559049000000
000031DA000510639390639390923117099414        000000000100000000100050921410956518592311709        923117099414                03117099414                 999925000000
000032DA0005102205832205836393470000334877    000000001000000000100050921543384182511112222        03117099414                 03117099414                 999925000000
000033DA0005102205832205836393470000418449    000000000900000000100050922113249277111112222        03121388717                 03121388717                 999925000000
000034DA000510639390639390923135098526        000000102000000000100050922434535745992313509        923135098526                03065698699                 999925000000
000035FO20220510072620
