000000HE20220512073901
000001DA000512999925999925999925058300628698  000000650000000000100051100230303869883644350        03006413234                 03465153135                 639390000051
000002DA0005122205832205836393470000571338    000000020000000000100051101381951469911112222        03109412074                 03109412074                 999925000051
000003DA000512999925999925999925570498228701  000000020300000000100051101482575870183644350        03216261782                 03216261782                 639390000051
000004DA000512639390639390923330420999        000000000100000000100051102372996233092333042        923330420999                03330420999                 999925000051
000005DA000512999925999925999925908010128704  000000000100000000100051102444045870483644350        03330420999                 03330420999                 220591000051
000006DA0005122205832205836393470000334737    000000001000000000100051102582590846411112222        03460987709                 03460987709                 999925000051
000007DA00051255904955904903071915354         000000010000000000100051106151644008501070000        03071915354                 03071915354                 999925000052
000008DA000512999925999925999925136631228707  000000009800000000100051108560678870783644350        03150382071                 03093781159                 639390000051
000009DA000512999925999925999925571007028710  000000100000000000100051110083020871083644350        03047846424                 03047846424                 585953000052
000010DA000512999925999925999925727311028714  000000228000000000100051110343340871483644350        03450539199                 03432072337                 639390000052
000011DA0005126278736278735160620329001556    0000001100000000001000511110406544195rand            08310105827522              03325310646                 999925000052
000012DA000512999925999925999925924445028718  000000110000000000100051111072445871883644350        03325310646                 00351002486115              627100000052
000013DA000512999925999925999925984343228721  000000010000000000100051111172329872183644350        03071915354                 03071915354                 559049000052
000014DA0005126006486006486006480000000000000 00000065000000000010005111220532222611               640331570185                03006413234                 999925000051
000015DA0005122205832205836393470000432002    000000002200000000100051113384692099211112222        03247693114                 03247693114                 999925000052
000016DA000512999925999925999925868779828725  000000020000000000100051113444776872583644350        03037340112                 03037340112                 478278000052
000017DA000512999925999925999925967852428728  000000005000000000100051114011875872883644350        03000029047                 03000029047                 585953000052
000018DA000512999925999925999925044557128731  000000001200000000100051114140570873183644350        03491843021                 03491843021                 478278000052
000019DA000512639390639390923003589334        000000025000000000100051116321533110392300358        923003589334                03003589334                 999925000000
000020DA000512999925999925999925074562228751  000000002200000000100051117054517875183644350        03247693114                 03247693114                 478278000000
000021DA000512999925999925999925192926728758  000000000100000000100051117252951875883644350        03212121831                 03126992173                 478278000000
000022DA000512639390639390923003524185        000000002000000000100051117325314434392300352        923003524185                03065698699                 999925000000
000023DA000512639390639390923065698699        000000049900000000100051117392823200192306569        923065698699                03065698699                 999925000000
000024DA000512999925999925999925415219728762  000000110000000000100051118022242876283644350        03047846424                 03216834147                 585953000000
000025DA0005122205832205836393470001852505    000000000100000000100051118164868898511112222        03003676223                 03332144454                 999925000000
000026DA000512639390639390923124398910        000001325000000000100051121252776548592312439        923124398910                03124398910                 999925000000
000027DA0005122205832205836393470000372711    000000014900000000100051123262759385311112222        03082893132                 03082893132                 999925000000
000028FO20220512073901
