000000HE20220516065139
000001DA00051655904955904903438787400         000000000100000000100051420305016055301070000        03438787400                 03438787400                 999925000000
000002DA00051655904955904903172873825         000000001000000000100051421014820013101070000        03172873825                 03172873825                 999925000000
000003DA000516639390639390923001432654        000000007700000000100051504365440763692300143        923001432654                03007669524                 999925000000
000004DA0005162205832205836393470000372711    000000150000000000100051512281381839211112222        03082893132                 03082893132                 999925000000
000005DA0005162205832205836393470000988037    000000005000000000100051513204384213411112222        03204118373                 03204118373                 999925000000
000006DA0005162205832205836393470000223310    000000027600000000100051518023354760311112222        03239824220                 03239824220                 999925000000
000007DA0005166278736278734649510294011900    0000001000000000001000515200152428561rand            02940104474415              03245241663                 999925000000
000008DA0005166006486006488004264220125112245 000000200000000000100051520271780042600000108        54357000012103              03482314269                 999925000000
000009DA0005162205832205836393470000249943    000000000500000000100051520321267620111112222        03107537091                 03107537091                 999925000000
000010DA000516999925999925999925161222328820  000000004700000000100051521201241882083644350        03368122236                 08310105145985              627873000000
000011DA000516999925999925999925162244528822  000000004700000000100051521202206882283644350        03368122236                 08310105145985              627873000000
000012DA000516639390639390923000205959        000000050000000000100051521361345063292300020        923000205959                03000205959                 999925000000
000013DA000516999925999925999925403702028825  000000028800000000100051522003748882583644350        03014376331                 07630010056710720011        589430000000
000014DA000516999925999925999925429668128830  000000140000000000100051522045621883083644350        03484547076                 03484547076                 478278000000
000015DA000516999925999925999925604218328834  000000010000000000100051522340223883483644350        03434433003                 02360105254537              627873000000
000016DA000516999925999925999925634038928838  000000006000000000100051522390025883883644350        03486721366                 03167370375                 639390000000
000017DA0005162205832205836393470000220886    000000100000000000100051522460681551611112222        03024231938                 03024231938                 999925000000
000018DA000516999925999925999925795178328842  000000000025000000100051523055141884283644350        03065698699                 03065698699                 585953000000
000019DA00051662727162727101733340201         0000003750000000001000515235844589459ONLINE          01733340201                 03213696930                 999925000000
000020FO20220516065139
