000000HE20220503073357
000001DA000503999925999925999925211597328283  000000500000000000100050200083582828383644350        03453072737                 03453072737                 559049000000
000002DA000503999925999925999925377868328286  000000000100000000100050200361832828683644350        03338388641                 03338388641                 585953000000
000003DA0005032205832205836393470000494051    000000000100000000100050200531968266611112222        03023752216                 03023752216                 999925000000
000004DA000503999925999925999925645966828290  000000060000000000100050201205977829083644350        03329376584                 08070103526268              627873000000
000005DA000503999925999925999925197312128294  000000500000000000100050202525385829483644350        03331525779                 22927916770103              600648000000
000006DA000503999925999925999925605325028297  000000064000000000100050204005326829783644350        03222255333                 03222255333                 559049000000
000007DA000503999925999925999925730419828300  000000800000000000100050204214486830083644350        03159999886                 03159999886                 603733000000
000008DA000503999925999925999925763743828303  000000020000000000100050204271783830383644350        03000205959                 03000205959                 639390000000
000009DA000503999925999925999925054137828307  000000001000000000100050205154143830783644350        03130000299                 03130000299                 559049000000
000010DA000503999925999925999925289318928310  000000001000000000100050205545367831083644350        03162452811                 03162452811                 585953000000
000011DA000503999925999925999925628822728313  000000120000000000100050206512829831383644350        03034933030                 03034933030                 559049000000
000012DA000503639390639390923087095337        000000200000000000100050208191666319892308709        923087095337                03087095337                 999925000000
000013DA000503999925999925999925362176228317  000000004400000000100050208534128831783644350        03007669524                 03007669524                 603733000000
000014DA000503999925999925999925867708728320  000000022000000000100050210175740832083644350        03095096908                 03223438069                 585953000000
000015DA000503999925999925999925958962928323  000000080000000000100050210330914832383644350        03095096908                 03223438069                 585953000000
000016DA000503639390639390923432574847        000000010000000000100050210381504769492343257        923432574847                03432574847                 999925000000
000017DA0005032205832205836393470000219789    000000100000000000100050210445689487311112222        03018191111                 03018191111                 999925000000
000018DA000503639390639390923155085528        000000200000000000100050211411781736292315508        923155085528                03155085528                 999925000000
000019DA0005032205832205836393470000340312    000000002500000000100050214552792150211112222        03336453355                 03116453696                 999925000000
000020DA000503999925999925999925043241628329  000000050000000000100050216203222832983644350        03144258741                 02170103991342              627873000000
000021DA000503999925999925999925044191528331  000000001500000000100050216204183833183644350        03043011119                 03043011119                 559049000000
000022DA00050362727162727101730788901         0000010000000000001000502183306711663ONLINE          01730788901                 03314226483                 999925000000
000023DA0005036278736278734649519979008669    0000000500000000001000502202736817314rand            99790106327887              03081233343                 999925000000
000024DA000503999925999925999925615510528334  000000999100000000100050220423574833483644350        03004259404                 02050103848270              627873000000
000025DA000503999925999925999925628151328338  000000728900000000100050220444160833883644350        03004259404                 03004259404                 559049000000
000026DA000503999925999925999925684543228341  000000039500000000100050220540544834183644350        03407952908                 03407952908                 559049000000
000027DA000503639390639390923244697521        000000005000000000100050221255240895392324469        923244697521                03131314158                 999925000000
000028DA000503639390639390923152467968        000000100000000000100050223184692631092315246        923152467968                03156168866                 999925000000
000029DA0005036278736278734649510135014345    0000010000000000001000502234516285881rand            08310105830881              03035900565                 999925000000
000030DA000503999925999925999925731965428344  000000130000000000100050223483956834483644350        03062666676                 03062666676                 639390000000
000031FO20220503073357
